{
  "contractName": "VotingContract",
  "abi": [
    {
      "inputs": [],
      "payable": false,
      "stateMutability": "nonpayable",
      "type": "constructor"
    },
    {
      "anonymous": false,
      "inputs": [
        {
          "indexed": true,
          "internalType": "string",
          "name": "abstain",
          "type": "string"
        }
      ],
      "name": "Abstain",
      "type": "event"
    },
    {
      "anonymous": false,
      "inputs": [
        {
          "indexed": true,
          "internalType": "string",
          "name": "reject",
          "type": "string"
        }
      ],
      "name": "Reject",
      "type": "event"
    },
    {
      "anonymous": false,
      "inputs": [
        {
          "indexed": true,
          "internalType": "uint256",
          "name": "candidateId",
          "type": "uint256"
        }
      ],
      "name": "Vote",
      "type": "event"
    },
    {
      "constant": true,
      "inputs": [
        {
          "internalType": "uint256",
          "name": "",
          "type": "uint256"
        }
      ],
      "name": "candidateDetails",
      "outputs": [
        {
          "internalType": "uint256",
          "name": "candidateId",
          "type": "uint256"
        },
        {
          "internalType": "string",
          "name": "name",
          "type": "string"
        },
        {
          "internalType": "string",
          "name": "details",
          "type": "string"
        },
        {
          "internalType": "uint256",
          "name": "voteCount",
          "type": "uint256"
        }
      ],
      "payable": false,
      "stateMutability": "view",
      "type": "function"
    },
    {
      "constant": true,
      "inputs": [
        {
          "internalType": "address",
          "name": "",
          "type": "address"
        }
      ],
      "name": "voterAddresses",
      "outputs": [
        {
          "internalType": "string",
          "name": "name",
          "type": "string"
        },
        {
          "internalType": "string",
          "name": "voterId",
          "type": "string"
        },
        {
          "internalType": "address",
          "name": "voterAddress",
          "type": "address"
        },
        {
          "internalType": "bool",
          "name": "hasVoted",
          "type": "bool"
        }
      ],
      "payable": false,
      "stateMutability": "view",
      "type": "function"
    },
    {
      "constant": false,
      "inputs": [
        {
          "internalType": "string",
          "name": "_name",
          "type": "string"
        },
        {
          "internalType": "string",
          "name": "_details",
          "type": "string"
        }
      ],
      "name": "addCandidate",
      "outputs": [],
      "payable": false,
      "stateMutability": "nonpayable",
      "type": "function"
    },
    {
      "constant": false,
      "inputs": [
        {
          "internalType": "string",
          "name": "_name",
          "type": "string"
        },
        {
          "internalType": "string",
          "name": "_voterId",
          "type": "string"
        },
        {
          "internalType": "address",
          "name": "_voterAddress",
          "type": "address"
        }
      ],
      "name": "manualAddVoter",
      "outputs": [],
      "payable": false,
      "stateMutability": "nonpayable",
      "type": "function"
    },
    {
      "constant": false,
      "inputs": [
        {
          "internalType": "uint256",
          "name": "_candidateId",
          "type": "uint256"
        }
      ],
      "name": "vote",
      "outputs": [],
      "payable": false,
      "stateMutability": "nonpayable",
      "type": "function"
    },
    {
      "constant": false,
      "inputs": [],
      "name": "abstain",
      "outputs": [],
      "payable": false,
      "stateMutability": "nonpayable",
      "type": "function"
    },
    {
      "constant": false,
      "inputs": [],
      "name": "reject",
      "outputs": [],
      "payable": false,
      "stateMutability": "nonpayable",
      "type": "function"
    },
    {
      "constant": false,
      "inputs": [],
      "name": "startElection",
      "outputs": [],
      "payable": false,
      "stateMutability": "nonpayable",
      "type": "function"
    },
    {
      "constant": false,
      "inputs": [],
      "name": "endElection",
      "outputs": [],
      "payable": false,
      "stateMutability": "nonpayable",
      "type": "function"
    },
    {
      "constant": true,
      "inputs": [],
      "name": "electionStatus",
      "outputs": [
        {
          "internalType": "bool",
          "name": "",
          "type": "bool"
        }
      ],
      "payable": false,
      "stateMutability": "view",
      "type": "function"
    },
    {
      "constant": false,
      "inputs": [],
      "name": "electionResults",
      "outputs": [
        {
          "internalType": "uint256",
          "name": "",
          "type": "uint256"
        }
      ],
      "payable": false,
      "stateMutability": "nonpayable",
      "type": "function"
    },
    {
      "constant": false,
      "inputs": [],
      "name": "viewWinner",
      "outputs": [
        {
          "internalType": "string",
          "name": "",
          "type": "string"
        }
      ],
      "payable": false,
      "stateMutability": "nonpayable",
      "type": "function"
    },
    {
      "constant": true,
      "inputs": [],
      "name": "getVoterCount",
      "outputs": [
        {
          "internalType": "uint256",
          "name": "",
          "type": "uint256"
        }
      ],
      "payable": false,
      "stateMutability": "view",
      "type": "function"
    },
    {
      "constant": true,
      "inputs": [],
      "name": "getOwner",
      "outputs": [
        {
          "internalType": "address",
          "name": "",
          "type": "address"
        }
      ],
      "payable": false,
      "stateMutability": "view",
      "type": "function"
    },
    {
      "constant": true,
      "inputs": [],
      "name": "getCandidateCount",
      "outputs": [
        {
          "internalType": "uint256",
          "name": "",
          "type": "uint256"
        }
      ],
      "payable": false,
      "stateMutability": "view",
      "type": "function"
    },
    {
      "constant": true,
      "inputs": [],
      "name": "totalVotesCasted",
      "outputs": [
        {
          "internalType": "uint256",
          "name": "",
          "type": "uint256"
        }
      ],
      "payable": false,
      "stateMutability": "view",
      "type": "function"
    },
    {
      "constant": true,
      "inputs": [],
      "name": "totalAbstain",
      "outputs": [
        {
          "internalType": "uint256",
          "name": "",
          "type": "uint256"
        }
      ],
      "payable": false,
      "stateMutability": "view",
      "type": "function"
    },
    {
      "constant": true,
      "inputs": [],
      "name": "totalReject",
      "outputs": [
        {
          "internalType": "uint256",
          "name": "",
          "type": "uint256"
        }
      ],
      "payable": false,
      "stateMutability": "view",
      "type": "function"
    }
  ],
  "bytecode": "0x6080604052600060015560006002556000600555600060065560006007556040518060400160405280601381526020017f43616e646964617465732072656a656374656400000000000000000000000000815250600890805190602001906200006a929190620000bf565b503480156200007857600080fd5b50336000806101000a81548173ffffffffffffffffffffffffffffffffffffffff021916908373ffffffffffffffffffffffffffffffffffffffff1602179055506200016e565b828054600181600116156101000203166002900490600052602060002090601f016020900481019282601f106200010257805160ff191683800117855562000133565b8280016001018555821562000133579182015b828111156200013257825182559160200191906001019062000115565b5b50905062000142919062000146565b5090565b6200016b91905b80821115620001675760008160009055506001016200014d565b5090565b90565b611e34806200017e6000396000f3fe608060405234801561001057600080fd5b50600436106101165760003560e01c80634dc415de116100a257806362d73eb81161007157806362d73eb81461065a5780637c99279a14610664578063893d20e814610682578063eaef0349146106cc578063fe6b946e146106ee57610116565b80634dc415de1461051b57806359f78468146105255780635e98e4c71461052f5780636247e5321461053957610116565b806326541b56116100e957806326541b56146102ec57806330a563471461043e578063392e24031461045c5780633b98d75a146104df578063463b6275146104fd57610116565b80630121b93f1461011b578063037272831461014957806308670f4f146102b057806311174a29146102ce575b600080fd5b6101476004803603602081101561013157600080fd5b8101908080359060200190929190505050610860565b005b61018b6004803603602081101561015f57600080fd5b81019080803573ffffffffffffffffffffffffffffffffffffffff169060200190929190505050610b78565b6040518080602001806020018573ffffffffffffffffffffffffffffffffffffffff1673ffffffffffffffffffffffffffffffffffffffff16815260200184151515158152602001838103835287818151815260200191508051906020019080838360005b8381101561020b5780820151818401526020810190506101f0565b50505050905090810190601f1680156102385780820380516001836020036101000a031916815260200191505b50838103825286818151815260200191508051906020019080838360005b83811015610271578082015181840152602081019050610256565b50505050905090810190601f16801561029e5780820380516001836020036101000a031916815260200191505b50965050505050505060405180910390f35b6102b8610d05565b6040518082815260200191505060405180910390f35b6102d6610e12565b6040518082815260200191505060405180910390f35b61043c6004803603604081101561030257600080fd5b810190808035906020019064010000000081111561031f57600080fd5b82018360208201111561033157600080fd5b8035906020019184600183028401116401000000008311171561035357600080fd5b91908080601f016020809104026020016040519081016040528093929190818152602001838380828437600081840152601f19601f820116905080830192505050505050509192919290803590602001906401000000008111156103b657600080fd5b8201836020820111156103c857600080fd5b803590602001918460018302840111640100000000831117156103ea57600080fd5b91908080601f016020809104026020016040519081016040528093929190818152602001838380828437600081840152601f19601f820116905080830192505050505050509192919290505050610e1c565b005b610446610f88565b6040518082815260200191505060405180910390f35b610464610f92565b6040518080602001828103825283818151815260200191508051906020019080838360005b838110156104a4578082015181840152602081019050610489565b50505050905090810190601f1680156104d15780820380516001836020036101000a031916815260200191505b509250505060405180910390f35b6104e7611105565b6040518082815260200191505060405180910390f35b61050561110f565b6040518082815260200191505060405180910390f35b610523611119565b005b61052d611451565b005b610537611530565b005b6105656004803603602081101561054f57600080fd5b8101908080359060200190929190505050611868565b604051808581526020018060200180602001848152602001838103835286818151815260200191508051906020019080838360005b838110156105b557808201518184015260208101905061059a565b50505050905090810190601f1680156105e25780820380516001836020036101000a031916815260200191505b50838103825285818151815260200191508051906020019080838360005b8381101561061b578082015181840152602081019050610600565b50505050905090810190601f1680156106485780820380516001836020036101000a031916815260200191505b50965050505050505060405180910390f35b6106626119c8565b005b61066c611aa7565b6040518082815260200191505060405180910390f35b61068a611ab1565b604051808273ffffffffffffffffffffffffffffffffffffffff1673ffffffffffffffffffffffffffffffffffffffff16815260200191505060405180910390f35b6106d4611ada565b604051808215151515815260200191505060405180910390f35b61085e6004803603606081101561070457600080fd5b810190808035906020019064010000000081111561072157600080fd5b82018360208201111561073357600080fd5b8035906020019184600183028401116401000000008311171561075557600080fd5b91908080601f016020809104026020016040519081016040528093929190818152602001838380828437600081840152601f19601f820116905080830192505050505050509192919290803590602001906401000000008111156107b857600080fd5b8201836020820111156107ca57600080fd5b803590602001918460018302840111640100000000831117156107ec57600080fd5b91908080601f016020809104026020016040519081016040528093929190818152602001838380828437600081840152601f19601f820116905080830192505050505050509192919290803573ffffffffffffffffffffffffffffffffffffffff169060200190929190505050611af1565b005b600073ffffffffffffffffffffffffffffffffffffffff16600960003373ffffffffffffffffffffffffffffffffffffffff1673ffffffffffffffffffffffffffffffffffffffff16815260200190815260200160002060020160009054906101000a900473ffffffffffffffffffffffffffffffffffffffff1673ffffffffffffffffffffffffffffffffffffffff161415610965576040517f08c379a00000000000000000000000000000000000000000000000000000000081526004018080602001828103825260148152602001807f766f74657220646f6573206e6f7420657869737400000000000000000000000081525060200191505060405180910390fd5b60001515600960003373ffffffffffffffffffffffffffffffffffffffff1673ffffffffffffffffffffffffffffffffffffffff16815260200190815260200160002060020160149054906101000a900460ff16151514610a2e576040517f08c379a00000000000000000000000000000000000000000000000000000000081526004018080602001828103825260118152602001807f68617320616c726561647920766f74656400000000000000000000000000000081525060200191505060405180910390fd5b60011515600360009054906101000a900460ff16151514610ab7576040517f08c379a000000000000000000000000000000000000000000000000000000000815260040180806020018281038252600b8152602001807f6e6f74207374617274656400000000000000000000000000000000000000000081525060200191505060405180910390fd5b6001600a6000838152602001908152602001600020600301600082825401925050819055506001600960003373ffffffffffffffffffffffffffffffffffffffff1673ffffffffffffffffffffffffffffffffffffffff16815260200190815260200160002060020160146101000a81548160ff021916908315150217905550807fdcd6a5cd90707bfd61ed2fddae23e88c584cb5b78a0e9989710a59fd84c0a1f960405160405180910390a2600160056000828254019250508190555050565b6009602052806000526040600020600091509050806000018054600181600116156101000203166002900480601f016020809104026020016040519081016040528092919081815260200182805460018160011615610100020316600290048015610c245780601f10610bf957610100808354040283529160200191610c24565b820191906000526020600020905b815481529060010190602001808311610c0757829003601f168201915b505050505090806001018054600181600116156101000203166002900480601f016020809104026020016040519081016040528092919081815260200182805460018160011615610100020316600290048015610cc25780601f10610c9757610100808354040283529160200191610cc2565b820191906000526020600020905b815481529060010190602001808311610ca557829003601f168201915b5050505050908060020160009054906101000a900473ffffffffffffffffffffffffffffffffffffffff16908060020160149054906101000a900460ff16905084565b6000801515600360009054906101000a900460ff16151514610d2657600080fd5b600080905060026007546005540381610d3b57fe5b046006541115610d515760018054019050610e0b565b60008090505b600154811015610db057600b600a60008381526020019081526020016000206003015490806001815401808255809150509060018203906000526020600020016000909192909190915055508080600101915050610d57565b506000600190505b600154811015610e0957600b8281548110610dcf57fe5b9060005260206000200154600b8281548110610de757fe5b90600052602060002001541115610dfc578091505b8080600101915050610db8565b505b8091505090565b6000600254905090565b6000809054906101000a900473ffffffffffffffffffffffffffffffffffffffff1673ffffffffffffffffffffffffffffffffffffffff163373ffffffffffffffffffffffffffffffffffffffff1614610ede576040517f08c379a000000000000000000000000000000000000000000000000000000000815260040180806020018281038252600a8152602001807f6f6e6c79204f776e65720000000000000000000000000000000000000000000081525060200191505060405180910390fd5b610ee6611cf2565b604051806080016040528060015481526020018481526020018381526020016000815250905080600a60006001548152602001908152602001600020600082015181600001556020820151816001019080519060200190610f48929190611d1a565b506040820151816002019080519060200190610f65929190611d1a565b506060820151816003015590505060018060008282540192505081905550505050565b6000600154905090565b60606000610f9e610d05565b9050600180540181141561104f5760088054600181600116156101000203166002900480601f0160208091040260200160405190810160405280929190818152602001828054600181600116156101000203166002900480156110425780601f1061101757610100808354040283529160200191611042565b820191906000526020600020905b81548152906001019060200180831161102557829003601f168201915b5050505050915050611102565b600a60008281526020019081526020016000206001018054600181600116156101000203166002900480601f0160208091040260200160405190810160405280929190818152602001828054600181600116156101000203166002900480156110f95780601f106110ce576101008083540402835291602001916110f9565b820191906000526020600020905b8154815290600101906020018083116110dc57829003601f168201915b50505050509150505b90565b6000600754905090565b6000600654905090565b600073ffffffffffffffffffffffffffffffffffffffff16600960003373ffffffffffffffffffffffffffffffffffffffff1673ffffffffffffffffffffffffffffffffffffffff16815260200190815260200160002060020160009054906101000a900473ffffffffffffffffffffffffffffffffffffffff1673ffffffffffffffffffffffffffffffffffffffff16141561121e576040517f08c379a00000000000000000000000000000000000000000000000000000000081526004018080602001828103825260148152602001807f766f74657220646f6573206e6f7420657869737400000000000000000000000081525060200191505060405180910390fd5b60001515600960003373ffffffffffffffffffffffffffffffffffffffff1673ffffffffffffffffffffffffffffffffffffffff16815260200190815260200160002060020160149054906101000a900460ff161515146112e7576040517f08c379a00000000000000000000000000000000000000000000000000000000081526004018080602001828103825260118152602001807f68617320616c726561647920766f74656400000000000000000000000000000081525060200191505060405180910390fd5b60011515600360009054906101000a900460ff16151514611370576040517f08c379a000000000000000000000000000000000000000000000000000000000815260040180806020018281038252600b8152602001807f6e6f74207374617274656400000000000000000000000000000000000000000081525060200191505060405180910390fd5b60016006600082825401925050819055506001600960003373ffffffffffffffffffffffffffffffffffffffff1673ffffffffffffffffffffffffffffffffffffffff16815260200190815260200160002060020160146101000a81548160ff02191690831515021790555060405180807f52656a6563746564000000000000000000000000000000000000000000000000815250600801905060405180910390207f5a074a7aea2ae96d3d465d04e81f21320d03a4eb77c3f298647ff4fbdce6787d60405160405180910390a26001600560008282540192505081905550565b6000809054906101000a900473ffffffffffffffffffffffffffffffffffffffff1673ffffffffffffffffffffffffffffffffffffffff163373ffffffffffffffffffffffffffffffffffffffff1614611513576040517f08c379a000000000000000000000000000000000000000000000000000000000815260040180806020018281038252600a8152602001807f6f6e6c79204f776e65720000000000000000000000000000000000000000000081525060200191505060405180910390fd5b6000600360006101000a81548160ff021916908315150217905550565b600073ffffffffffffffffffffffffffffffffffffffff16600960003373ffffffffffffffffffffffffffffffffffffffff1673ffffffffffffffffffffffffffffffffffffffff16815260200190815260200160002060020160009054906101000a900473ffffffffffffffffffffffffffffffffffffffff1673ffffffffffffffffffffffffffffffffffffffff161415611635576040517f08c379a00000000000000000000000000000000000000000000000000000000081526004018080602001828103825260148152602001807f766f74657220646f6573206e6f7420657869737400000000000000000000000081525060200191505060405180910390fd5b60001515600960003373ffffffffffffffffffffffffffffffffffffffff1673ffffffffffffffffffffffffffffffffffffffff16815260200190815260200160002060020160149054906101000a900460ff161515146116fe576040517f08c379a00000000000000000000000000000000000000000000000000000000081526004018080602001828103825260118152602001807f68617320616c726561647920766f74656400000000000000000000000000000081525060200191505060405180910390fd5b60011515600360009054906101000a900460ff16151514611787576040517f08c379a000000000000000000000000000000000000000000000000000000000815260040180806020018281038252600b8152602001807f6e6f74207374617274656400000000000000000000000000000000000000000081525060200191505060405180910390fd5b60016007600082825401925050819055506001600960003373ffffffffffffffffffffffffffffffffffffffff1673ffffffffffffffffffffffffffffffffffffffff16815260200190815260200160002060020160146101000a81548160ff02191690831515021790555060405180807f4162737461696e65640000000000000000000000000000000000000000000000815250600901905060405180910390207fb8e3a4804945b9518180ff263fe61444b0743bc3b100f0e2d27af662f1fae07460405160405180910390a26001600560008282540192505081905550565b600a602052806000526040600020600091509050806000015490806001018054600181600116156101000203166002900480601f01602080910402602001604051908101604052809291908181526020018280546001816001161561010002031660029004801561191a5780601f106118ef5761010080835404028352916020019161191a565b820191906000526020600020905b8154815290600101906020018083116118fd57829003601f168201915b505050505090806002018054600181600116156101000203166002900480601f0160208091040260200160405190810160405280929190818152602001828054600181600116156101000203166002900480156119b85780601f1061198d576101008083540402835291602001916119b8565b820191906000526020600020905b81548152906001019060200180831161199b57829003601f168201915b5050505050908060030154905084565b6000809054906101000a900473ffffffffffffffffffffffffffffffffffffffff1673ffffffffffffffffffffffffffffffffffffffff163373ffffffffffffffffffffffffffffffffffffffff1614611a8a576040517f08c379a000000000000000000000000000000000000000000000000000000000815260040180806020018281038252600a8152602001807f6f6e6c79204f776e65720000000000000000000000000000000000000000000081525060200191505060405180910390fd5b6001600360006101000a81548160ff021916908315150217905550565b6000600554905090565b60008060009054906101000a900473ffffffffffffffffffffffffffffffffffffffff16905090565b6000600360009054906101000a900460ff16905090565b6000809054906101000a900473ffffffffffffffffffffffffffffffffffffffff1673ffffffffffffffffffffffffffffffffffffffff163373ffffffffffffffffffffffffffffffffffffffff1614611bb3576040517f08c379a000000000000000000000000000000000000000000000000000000000815260040180806020018281038252600a8152602001807f6f6e6c79204f776e65720000000000000000000000000000000000000000000081525060200191505060405180910390fd5b611bbb611d9a565b60405180608001604052808581526020018481526020018373ffffffffffffffffffffffffffffffffffffffff16815260200160001515815250905080600960008473ffffffffffffffffffffffffffffffffffffffff1673ffffffffffffffffffffffffffffffffffffffff1681526020019081526020016000206000820151816000019080519060200190611c53929190611d1a565b506020820151816001019080519060200190611c70929190611d1a565b5060408201518160020160006101000a81548173ffffffffffffffffffffffffffffffffffffffff021916908373ffffffffffffffffffffffffffffffffffffffff16021790555060608201518160020160146101000a81548160ff021916908315150217905550905050600160026000828254019250508190555050505050565b6040518060800160405280600081526020016060815260200160608152602001600081525090565b828054600181600116156101000203166002900490600052602060002090601f016020900481019282601f10611d5b57805160ff1916838001178555611d89565b82800160010185558215611d89579182015b82811115611d88578251825591602001919060010190611d6d565b5b509050611d969190611dda565b5090565b60405180608001604052806060815260200160608152602001600073ffffffffffffffffffffffffffffffffffffffff1681526020016000151581525090565b611dfc91905b80821115611df8576000816000905550600101611de0565b5090565b9056fea265627a7a72315820b603e6f191d25a59a3b29d7e082305229ded86cdbed849d418f9b4d990dad4db64736f6c63430005100032",
  "source": "pragma solidity ^0.5.16;\r\n\r\n// SPDX-License-Identifier: MIT\r\n\r\ncontract VotingContract {\r\n    address owner;\r\n\r\n    uint256 candidateCount = 0;\r\n\r\n    uint256 voterCount = 0;\r\n\r\n    bool start;\r\n\r\n    string pollName;\r\n\r\n    // Counter for total votes\r\n    uint256 votesCasted = 0;\r\n\r\n    // Counter for rejects\r\n    uint256 rejectCount = 0;\r\n\r\n    // Counter for abstains\r\n    uint256 abstainCount = 0;\r\n\r\n    // rejected string\r\n    string rejected = \"Candidates rejected\";\r\n\r\n    // Struct of a voter\r\n    struct Voter {\r\n        string name;\r\n        string voterId; // Roll number or any other number\r\n        address voterAddress; // Wallet address\r\n        bool hasVoted;\r\n    }\r\n\r\n    mapping(address => Voter) public voterAddresses;\r\n\r\n    // Struct of a candidate\r\n    struct Candidate {\r\n        uint256 candidateId;\r\n        string name;\r\n        string details; // manifesto or any other description\r\n        uint256 voteCount; // the number of votes he got\r\n    }\r\n\r\n    mapping(uint256 => Candidate) public candidateDetails;\r\n\r\n    uint256[] private candidateVote;\r\n\r\n    // Modifier for letting only the owner to add candidates\r\n    modifier onlyOwner() {\r\n        require(msg.sender == owner, \"only Owner\");\r\n        _;\r\n    }\r\n\r\n    constructor() public {\r\n        owner = msg.sender;\r\n    }\r\n\r\n    // function to add a new candidate\r\n    function addCandidate(string memory _name, string memory _details)\r\n        public\r\n        onlyOwner\r\n    {\r\n        Candidate memory newCandidate = Candidate({\r\n            candidateId: candidateCount,\r\n            name: _name,\r\n            details: _details,\r\n            voteCount: 0\r\n        });\r\n\r\n        candidateDetails[candidateCount] = newCandidate;\r\n\r\n        candidateCount += 1;\r\n    }\r\n\r\n    // function to add voter\r\n    // only suitable for a local blockchain\r\n    function manualAddVoter(\r\n        string memory _name,\r\n        string memory _voterId,\r\n        address _voterAddress\r\n    ) public onlyOwner {\r\n        Voter memory newVoter = Voter({\r\n            name: _name,\r\n            voterId: _voterId,\r\n            voterAddress: _voterAddress,\r\n            hasVoted: false\r\n        });\r\n\r\n        voterAddresses[_voterAddress] = newVoter;\r\n\r\n        voterCount += 1;\r\n    }\r\n\r\n    // A voting 'event' for logging the vote of the voter\r\n    event Vote(uint256 indexed candidateId);\r\n\r\n    // the actual voting\r\n    // Take uint256 _candidateId as an array, where each index of the array would point to each post that is being put up\r\n    // This would mean that candidateId in itself has to be a two dimensional array (of some type)\r\n    // This way we can also build an array of some sort (obviously not manually) which will assign\r\n    // each voter to the number and specific posts for which he/she can vote.\r\n    // This will also create fluidity for the number of posts, i.e., we can have n number of posts\r\n    // (Haven't thought about gas price yet)\r\n    function vote(uint256 _candidateId) public {\r\n        require(\r\n            voterAddresses[msg.sender].voterAddress != address(0),\r\n            \"voter does not exist\"\r\n        );\r\n        require(\r\n            voterAddresses[msg.sender].hasVoted == false,\r\n            \"has already voted\"\r\n        );\r\n        require(start == true, \"not started\");\r\n        candidateDetails[_candidateId].voteCount += 1;\r\n        voterAddresses[msg.sender].hasVoted = true;\r\n        emit Vote(_candidateId);\r\n        votesCasted += 1;\r\n    }\r\n\r\n    // event for emitting abstain\r\n    event Abstain(string indexed abstain);\r\n\r\n    // event for emitting reject\r\n    event Reject(string indexed reject);\r\n\r\n    // function for abstain\r\n    function abstain() public {\r\n        require(\r\n            voterAddresses[msg.sender].voterAddress != address(0),\r\n            \"voter does not exist\"\r\n        );\r\n        require(\r\n            voterAddresses[msg.sender].hasVoted == false,\r\n            \"has already voted\"\r\n        );\r\n        require(start == true, \"not started\");\r\n        abstainCount += 1;\r\n        voterAddresses[msg.sender].hasVoted = true;\r\n        emit Abstain(\"Abstained\");\r\n        votesCasted += 1;\r\n    }\r\n\r\n    // function for reject\r\n    function reject() public {\r\n        require(\r\n            voterAddresses[msg.sender].voterAddress != address(0),\r\n            \"voter does not exist\"\r\n        );\r\n        require(\r\n            voterAddresses[msg.sender].hasVoted == false,\r\n            \"has already voted\"\r\n        );\r\n        require(start == true, \"not started\");\r\n        rejectCount += 1;\r\n        voterAddresses[msg.sender].hasVoted = true;\r\n        emit Reject(\"Rejected\");\r\n        votesCasted += 1;\r\n    }\r\n\r\n    //voting function for meta transaction\r\n    // function voteMeta(\r\n    //     uint256 _candidateId,\r\n    //     address userAddress,\r\n    //     bytes32 r,\r\n    //     bytes32 s,\r\n    //     uint8 v\r\n    // ) public {\r\n    //     MetaTransaction memory metaTx = MetaTransaction({\r\n    //         nonce: nonces[userAddress],\r\n    //         from: userAddress\r\n    //     });\r\n\r\n    //     bytes32 digest = keccak256(\r\n    //         abi.encodePacked(\r\n    //             \"\\x19\\x01\",\r\n    //             DOMAIN_SEPARATOR,\r\n    //             keccak256(\r\n    //                 abi.encode(\r\n    //                     META_TRANSACTION_TYPEHASH,\r\n    //                     metaTx.nonce,\r\n    //                     metaTx.from\r\n    //                 )\r\n    //             )\r\n    //         )\r\n    //     );\r\n\r\n    //     require(userAddress != address(0), \"invalid-address-0\");\r\n    //     require(\r\n    //         userAddress == ecrecover(digest, v, r, s),\r\n    //         \"invalid-signatures\"\r\n    //     );\r\n    //     require(voterAddresses[userAddress].hasVoted == false);\r\n    //     require(start == true);\r\n    //     candidateDetails[_candidateId].voteCount += 1;\r\n    //     voterAddresses[userAddress].hasVoted = true;\r\n    //     nonces[userAddress]++;\r\n    // }\r\n\r\n    // onlyOwner function for starting the election\r\n    function startElection() public onlyOwner {\r\n        start = true;\r\n    }\r\n\r\n    // onlyOwner function to end election\r\n    function endElection() public onlyOwner {\r\n        start = false;\r\n    }\r\n\r\n    // public function to view election status (use this in dashboard)\r\n    function electionStatus() public view returns (bool) {\r\n        return (start);\r\n    }\r\n\r\n    // event for emitting election results\r\n    // event Results(uint256 indexed candidateId);\r\n\r\n    // function to view election results\r\n    function electionResults() public returns (uint256) {\r\n        require(start == false);\r\n        uint256 winner = 0;\r\n        if (rejectCount > (votesCasted - abstainCount) / 2) {\r\n            winner = candidateCount + 1;\r\n        } else {\r\n            for (uint256 i = 0; i < candidateCount; i++) {\r\n                candidateVote.push(candidateDetails[i].voteCount);\r\n            }\r\n            for (uint256 i = 1; i < candidateCount; i++) {\r\n                if (candidateVote[i] > candidateVote[winner]) {\r\n                    winner = i;\r\n                }\r\n            }\r\n        }\r\n        return winner;\r\n        // emit Results(winner);\r\n    }\r\n\r\n    // event for emitting winner\r\n    // event Winner(string indexed winner);\r\n\r\n    function viewWinner() public returns (string memory) {\r\n        uint256 winner = electionResults();\r\n        if (winner == candidateCount + 1) {\r\n            return rejected;\r\n            // emit Winner(rejected);\r\n        } else {\r\n            return candidateDetails[winner].name;\r\n            // emit Winner(candidateDetails[winner].name);\r\n        }\r\n    }\r\n\r\n    // get total number of voters\r\n    function getVoterCount() public view returns (uint256) {\r\n        return voterCount;\r\n    }\r\n\r\n    function getOwner() public view returns (address) {\r\n        return owner;\r\n    }\r\n\r\n    function getCandidateCount() public view returns (uint256) {\r\n        return candidateCount;\r\n    }\r\n\r\n    function totalVotesCasted() public view returns (uint256) {\r\n        return votesCasted;\r\n    }\r\n\r\n    function totalAbstain() public view returns (uint256) {\r\n        return abstainCount;\r\n    }\r\n\r\n    function totalReject() public view returns (uint256) {\r\n        return rejectCount;\r\n    }\r\n}\r\n",
  "sourcePath": "D:\\vote-block\\India_Book_of_Records\\contracts\\VotingContract.sol",
  "compiler": {
    "name": "solc",
    "version": "0.5.16+commit.9c3226ce.Emscripten.clang"
  },
  "schemaVersion": "3.4.8",
  "updatedAt": "2022-07-14T14:45:22.039Z",
  "networkType": "ethereum",
  "devdoc": {
    "methods": {}
  },
  "userdoc": {
    "methods": {}
  }
}